{
  "contractName": "Election",
  "abi": [
    {
      "inputs": [],
      "stateMutability": "nonpayable",
      "type": "constructor"
    },
    {
      "anonymous": false,
      "inputs": [
        {
          "indexed": true,
          "internalType": "address",
          "name": "owner",
          "type": "address"
        },
        {
          "indexed": true,
          "internalType": "address",
          "name": "approved",
          "type": "address"
        },
        {
          "indexed": true,
          "internalType": "uint256",
          "name": "tokenId",
          "type": "uint256"
        }
      ],
      "name": "Approval",
      "type": "event"
    },
    {
      "anonymous": false,
      "inputs": [
        {
          "indexed": true,
          "internalType": "address",
          "name": "owner",
          "type": "address"
        },
        {
          "indexed": true,
          "internalType": "address",
          "name": "operator",
          "type": "address"
        },
        {
          "indexed": false,
          "internalType": "bool",
          "name": "approved",
          "type": "bool"
        }
      ],
      "name": "ApprovalForAll",
      "type": "event"
    },
    {
      "anonymous": false,
      "inputs": [
        {
          "indexed": true,
          "internalType": "address",
          "name": "from",
          "type": "address"
        },
        {
          "indexed": true,
          "internalType": "address",
          "name": "to",
          "type": "address"
        },
        {
          "indexed": true,
          "internalType": "uint256",
          "name": "tokenId",
          "type": "uint256"
        }
      ],
      "name": "Transfer",
      "type": "event"
    },
    {
      "inputs": [
        {
          "internalType": "uint256",
          "name": "",
          "type": "uint256"
        }
      ],
      "name": "Candidates",
      "outputs": [
        {
          "internalType": "uint256",
          "name": "id",
          "type": "uint256"
        },
        {
          "internalType": "string",
          "name": "name",
          "type": "string"
        },
        {
          "internalType": "uint256",
          "name": "voteCount",
          "type": "uint256"
        },
        {
          "internalType": "bool",
          "name": "result",
          "type": "bool"
        }
      ],
      "stateMutability": "view",
      "type": "function",
      "constant": true
    },
    {
      "inputs": [],
      "name": "ElectionResult",
      "outputs": [
        {
          "internalType": "bool",
          "name": "",
          "type": "bool"
        }
      ],
      "stateMutability": "view",
      "type": "function",
      "constant": true
    },
    {
      "inputs": [],
      "name": "VotingCount",
      "outputs": [
        {
          "internalType": "uint256",
          "name": "",
          "type": "uint256"
        }
      ],
      "stateMutability": "view",
      "type": "function",
      "constant": true
    },
    {
      "inputs": [
        {
          "internalType": "address",
          "name": "to",
          "type": "address"
        },
        {
          "internalType": "uint256",
          "name": "tokenId",
          "type": "uint256"
        }
      ],
      "name": "approve",
      "outputs": [],
      "stateMutability": "nonpayable",
      "type": "function"
    },
    {
      "inputs": [
        {
          "internalType": "address",
          "name": "owner",
          "type": "address"
        }
      ],
      "name": "balanceOf",
      "outputs": [
        {
          "internalType": "uint256",
          "name": "",
          "type": "uint256"
        }
      ],
      "stateMutability": "view",
      "type": "function",
      "constant": true
    },
    {
      "inputs": [
        {
          "internalType": "uint256",
          "name": "tokenId",
          "type": "uint256"
        }
      ],
      "name": "getApproved",
      "outputs": [
        {
          "internalType": "address",
          "name": "",
          "type": "address"
        }
      ],
      "stateMutability": "view",
      "type": "function",
      "constant": true
    },
    {
      "inputs": [
        {
          "internalType": "address",
          "name": "owner",
          "type": "address"
        },
        {
          "internalType": "address",
          "name": "operator",
          "type": "address"
        }
      ],
      "name": "isApprovedForAll",
      "outputs": [
        {
          "internalType": "bool",
          "name": "",
          "type": "bool"
        }
      ],
      "stateMutability": "view",
      "type": "function",
      "constant": true
    },
    {
      "inputs": [],
      "name": "name",
      "outputs": [
        {
          "internalType": "string",
          "name": "",
          "type": "string"
        }
      ],
      "stateMutability": "view",
      "type": "function",
      "constant": true
    },
    {
      "inputs": [
        {
          "internalType": "uint256",
          "name": "tokenId",
          "type": "uint256"
        }
      ],
      "name": "ownerOf",
      "outputs": [
        {
          "internalType": "address",
          "name": "",
          "type": "address"
        }
      ],
      "stateMutability": "view",
      "type": "function",
      "constant": true
    },
    {
      "inputs": [
        {
          "internalType": "address",
          "name": "from",
          "type": "address"
        },
        {
          "internalType": "address",
          "name": "to",
          "type": "address"
        },
        {
          "internalType": "uint256",
          "name": "tokenId",
          "type": "uint256"
        }
      ],
      "name": "safeTransferFrom",
      "outputs": [],
      "stateMutability": "nonpayable",
      "type": "function"
    },
    {
      "inputs": [
        {
          "internalType": "address",
          "name": "from",
          "type": "address"
        },
        {
          "internalType": "address",
          "name": "to",
          "type": "address"
        },
        {
          "internalType": "uint256",
          "name": "tokenId",
          "type": "uint256"
        },
        {
          "internalType": "bytes",
          "name": "_data",
          "type": "bytes"
        }
      ],
      "name": "safeTransferFrom",
      "outputs": [],
      "stateMutability": "nonpayable",
      "type": "function"
    },
    {
      "inputs": [
        {
          "internalType": "address",
          "name": "operator",
          "type": "address"
        },
        {
          "internalType": "bool",
          "name": "approved",
          "type": "bool"
        }
      ],
      "name": "setApprovalForAll",
      "outputs": [],
      "stateMutability": "nonpayable",
      "type": "function"
    },
    {
      "inputs": [],
      "name": "symbol",
      "outputs": [
        {
          "internalType": "string",
          "name": "",
          "type": "string"
        }
      ],
      "stateMutability": "view",
      "type": "function",
      "constant": true
    },
    {
      "inputs": [
        {
          "internalType": "uint256",
          "name": "index",
          "type": "uint256"
        }
      ],
      "name": "tokenByIndex",
      "outputs": [
        {
          "internalType": "uint256",
          "name": "",
          "type": "uint256"
        }
      ],
      "stateMutability": "view",
      "type": "function",
      "constant": true
    },
    {
      "inputs": [
        {
          "internalType": "address",
          "name": "owner",
          "type": "address"
        },
        {
          "internalType": "uint256",
          "name": "index",
          "type": "uint256"
        }
      ],
      "name": "tokenOfOwnerByIndex",
      "outputs": [
        {
          "internalType": "uint256",
          "name": "",
          "type": "uint256"
        }
      ],
      "stateMutability": "view",
      "type": "function",
      "constant": true
    },
    {
      "inputs": [
        {
          "internalType": "uint256",
          "name": "tokenId",
          "type": "uint256"
        }
      ],
      "name": "tokenURI",
      "outputs": [
        {
          "internalType": "string",
          "name": "",
          "type": "string"
        }
      ],
      "stateMutability": "view",
      "type": "function",
      "constant": true
    },
    {
      "inputs": [],
      "name": "totalSupply",
      "outputs": [
        {
          "internalType": "uint256",
          "name": "",
          "type": "uint256"
        }
      ],
      "stateMutability": "view",
      "type": "function",
      "constant": true
    },
    {
      "inputs": [
        {
          "internalType": "address",
          "name": "from",
          "type": "address"
        },
        {
          "internalType": "address",
          "name": "to",
          "type": "address"
        },
        {
          "internalType": "uint256",
          "name": "tokenId",
          "type": "uint256"
        }
      ],
      "name": "transferFrom",
      "outputs": [],
      "stateMutability": "nonpayable",
      "type": "function"
    },
    {
      "inputs": [
        {
          "internalType": "address",
          "name": "",
          "type": "address"
        }
      ],
      "name": "voters",
      "outputs": [
        {
          "internalType": "bool",
          "name": "",
          "type": "bool"
        }
      ],
      "stateMutability": "view",
      "type": "function",
      "constant": true
    },
    {
      "inputs": [
        {
          "internalType": "string",
          "name": "name",
          "type": "string"
        }
      ],
      "name": "mint",
      "outputs": [],
      "stateMutability": "nonpayable",
      "type": "function"
    },
    {
      "inputs": [
        {
          "internalType": "uint256",
          "name": "_Candidateid",
          "type": "uint256"
        }
      ],
      "name": "vote",
      "outputs": [],
      "stateMutability": "nonpayable",
      "type": "function"
    },
    {
      "inputs": [
        {
          "internalType": "bytes4",
          "name": "interfaceId",
          "type": "bytes4"
        }
      ],
      "name": "supportsInterface",
      "outputs": [
        {
          "internalType": "bool",
          "name": "",
          "type": "bool"
        }
      ],
      "stateMutability": "view",
      "type": "function",
      "constant": true
    }
  ],
  "bytecode": "0x60806040526000600a60006101000a81548160ff0219169083151502179055506000600b553480156200003157600080fd5b506040518060400160405280600881526020017f456c656374696f6e0000000000000000000000000000000000000000000000008152506040518060400160405280600381526020017f43435300000000000000000000000000000000000000000000000000000000008152508160009080519060200190620000b6929190620000d8565b508060019080519060200190620000cf929190620000d8565b505050620001ed565b828054620000e690620001b7565b90600052602060002090601f0160209004810192826200010a576000855562000156565b82601f106200012557805160ff191683800117855562000156565b8280016001018555821562000156579182015b828111156200015557825182559160200191906001019062000138565b5b50905062000165919062000169565b5090565b5b80821115620001845760008160009055506001016200016a565b5090565b7f4e487b7100000000000000000000000000000000000000000000000000000000600052602260045260246000fd5b60006002820490506001821680620001d057607f821691505b60208210811415620001e757620001e662000188565b5b50919050565b61356980620001fd6000396000f3fe608060405234801561001057600080fd5b50600436106101425760003560e01c806347f1cf44116100b8578063a22cb4651161007c578063a22cb465146103a0578063a3ec138d146103bc578063b88d4fde146103ec578063c87b56dd14610408578063d85d3d2714610438578063e985e9c51461045457610142565b806347f1cf44146102d45780634f6ccce7146102f25780636352211e1461032257806370a082311461035257806395d89b411461038257610142565b806318160ddd1161010a57806318160ddd146101fd57806323b872dd1461021b57806328f4eaa414610237578063290e9212146102555780632f745c591461028857806342842e0e146102b857610142565b80630121b93f1461014757806301ffc9a71461016357806306fdde0314610193578063081812fc146101b1578063095ea7b3146101e1575b600080fd5b610161600480360381019061015c919061222a565b610484565b005b61017d600480360381019061017891906122af565b61061f565b60405161018a91906122f7565b60405180910390f35b61019b610631565b6040516101a891906123ab565b60405180910390f35b6101cb60048036038101906101c6919061222a565b6106c3565b6040516101d8919061240e565b60405180910390f35b6101fb60048036038101906101f69190612455565b610748565b005b610205610860565b60405161021291906124a4565b60405180910390f35b610235600480360381019061023091906124bf565b61086d565b005b61023f6108cd565b60405161024c91906122f7565b60405180910390f35b61026f600480360381019061026a919061222a565b6108e0565b60405161027f9493929190612512565b60405180910390f35b6102a2600480360381019061029d9190612455565b6109b5565b6040516102af91906124a4565b60405180910390f35b6102d260048036038101906102cd91906124bf565b610a5a565b005b6102dc610a7a565b6040516102e991906124a4565b60405180910390f35b61030c6004803603810190610307919061222a565b610a80565b60405161031991906124a4565b60405180910390f35b61033c6004803603810190610337919061222a565b610af1565b604051610349919061240e565b60405180910390f35b61036c6004803603810190610367919061255e565b610ba3565b60405161037991906124a4565b60405180910390f35b61038a610c5b565b60405161039791906123ab565b60405180910390f35b6103ba60048036038101906103b591906125b7565b610ced565b005b6103d660048036038101906103d1919061255e565b610d03565b6040516103e391906122f7565b60405180910390f35b6104066004803603810190610401919061272c565b610d23565b005b610422600480360381019061041d919061222a565b610d85565b60405161042f91906123ab565b60405180910390f35b610452600480360381019061044d9190612850565b610e2c565b005b61046e60048036038101906104699190612899565b610f77565b60405161047b91906122f7565b60405180910390f35b600e60003373ffffffffffffffffffffffffffffffffffffffff1673ffffffffffffffffffffffffffffffffffffffff16815260200190815260200160002060009054906101000a900460ff16156104db57600080fd5b60008110156104e957600080fd5b6001600e60003373ffffffffffffffffffffffffffffffffffffffff1673ffffffffffffffffffffffffffffffffffffffff16815260200190815260200160002060006101000a81548160ff021916908315150217905550600b600081548092919061055490612908565b9190505550600d818154811061056d5761056c612951565b5b9060005260206000209060040201600201600081548092919061058f90612908565b91905055506003600d82815481106105aa576105a9612951565b5b906000526020600020906004020160020154141561061c576001600a60006101000a81548160ff0219169083151502179055506001600d82815481106105f3576105f2612951565b5b906000526020600020906004020160030160006101000a81548160ff0219169083151502179055505b50565b600061062a8261100b565b9050919050565b606060008054610640906129af565b80601f016020809104026020016040519081016040528092919081815260200182805461066c906129af565b80156106b95780601f1061068e576101008083540402835291602001916106b9565b820191906000526020600020905b81548152906001019060200180831161069c57829003601f168201915b5050505050905090565b60006106ce82611085565b61070d576040517f08c379a000000000000000000000000000000000000000000000000000000000815260040161070490612a53565b60405180910390fd5b6004600083815260200190815260200160002060009054906101000a900473ffffffffffffffffffffffffffffffffffffffff169050919050565b600061075382610af1565b90508073ffffffffffffffffffffffffffffffffffffffff168373ffffffffffffffffffffffffffffffffffffffff1614156107c4576040517f08c379a00000000000000000000000000000000000000000000000000000000081526004016107bb90612ae5565b60405180910390fd5b8073ffffffffffffffffffffffffffffffffffffffff166107e36110f1565b73ffffffffffffffffffffffffffffffffffffffff16148061081257506108118161080c6110f1565b610f77565b5b610851576040517f08c379a000000000000000000000000000000000000000000000000000000000815260040161084890612b77565b60405180910390fd5b61085b83836110f9565b505050565b6000600880549050905090565b61087e6108786110f1565b826111b2565b6108bd576040517f08c379a00000000000000000000000000000000000000000000000000000000081526004016108b490612c09565b60405180910390fd5b6108c8838383611290565b505050565b600a60009054906101000a900460ff1681565b600d81815481106108f057600080fd5b9060005260206000209060040201600091509050806000015490806001018054610919906129af565b80601f0160208091040260200160405190810160405280929190818152602001828054610945906129af565b80156109925780601f1061096757610100808354040283529160200191610992565b820191906000526020600020905b81548152906001019060200180831161097557829003601f168201915b5050505050908060020154908060030160009054906101000a900460ff16905084565b60006109c083610ba3565b8210610a01576040517f08c379a00000000000000000000000000000000000000000000000000000000081526004016109f890612c9b565b60405180910390fd5b600660008473ffffffffffffffffffffffffffffffffffffffff1673ffffffffffffffffffffffffffffffffffffffff168152602001908152602001600020600083815260200190815260200160002054905092915050565b610a7583838360405180602001604052806000815250610d23565b505050565b600b5481565b6000610a8a610860565b8210610acb576040517f08c379a0000000000000000000000000000000000000000000000000000000008152600401610ac290612d2d565b60405180910390fd5b60088281548110610adf57610ade612951565b5b90600052602060002001549050919050565b6000806002600084815260200190815260200160002060009054906101000a900473ffffffffffffffffffffffffffffffffffffffff169050600073ffffffffffffffffffffffffffffffffffffffff168173ffffffffffffffffffffffffffffffffffffffff161415610b9a576040517f08c379a0000000000000000000000000000000000000000000000000000000008152600401610b9190612dbf565b60405180910390fd5b80915050919050565b60008073ffffffffffffffffffffffffffffffffffffffff168273ffffffffffffffffffffffffffffffffffffffff161415610c14576040517f08c379a0000000000000000000000000000000000000000000000000000000008152600401610c0b90612e51565b60405180910390fd5b600360008373ffffffffffffffffffffffffffffffffffffffff1673ffffffffffffffffffffffffffffffffffffffff168152602001908152602001600020549050919050565b606060018054610c6a906129af565b80601f0160208091040260200160405190810160405280929190818152602001828054610c96906129af565b8015610ce35780601f10610cb857610100808354040283529160200191610ce3565b820191906000526020600020905b815481529060010190602001808311610cc657829003601f168201915b5050505050905090565b610cff610cf86110f1565b83836114f7565b5050565b600e6020528060005260406000206000915054906101000a900460ff1681565b610d34610d2e6110f1565b836111b2565b610d73576040517f08c379a0000000000000000000000000000000000000000000000000000000008152600401610d6a90612c09565b60405180910390fd5b610d7f84848484611664565b50505050565b6060610d9082611085565b610dcf576040517f08c379a0000000000000000000000000000000000000000000000000000000008152600401610dc690612ee3565b60405180910390fd5b6000610dd96116c0565b90506000815111610df95760405180602001604052806000815250610e24565b80610e03846116d7565b604051602001610e14929190612f3f565b6040516020818303038152906040525b915050919050565b600c81604051610e3c9190612f63565b908152602001604051809103902060009054906101000a900460ff1615610e6257600080fd5b6005600d8054905010610e7457600080fd5b600d6040518060800160405280600d80549050815260200183815260200160008152602001600015158152509080600181540180825580915050600190039060005260206000209060040201600090919091909150600082015181600001556020820151816001019080519060200190610eef92919061213d565b506040820151816002015560608201518160030160006101000a81548160ff021916908315150217905550505060006001600d80549050610f309190612f7a565b9050610f3c3382611838565b6001600c83604051610f4e9190612f63565b908152602001604051809103902060006101000a81548160ff0219169083151502179055505050565b6000600560008473ffffffffffffffffffffffffffffffffffffffff1673ffffffffffffffffffffffffffffffffffffffff16815260200190815260200160002060008373ffffffffffffffffffffffffffffffffffffffff1673ffffffffffffffffffffffffffffffffffffffff16815260200190815260200160002060009054906101000a900460ff16905092915050565b60007f780e9d63000000000000000000000000000000000000000000000000000000007bffffffffffffffffffffffffffffffffffffffffffffffffffffffff1916827bffffffffffffffffffffffffffffffffffffffffffffffffffffffff1916148061107e575061107d82611a12565b5b9050919050565b60008073ffffffffffffffffffffffffffffffffffffffff166002600084815260200190815260200160002060009054906101000a900473ffffffffffffffffffffffffffffffffffffffff1673ffffffffffffffffffffffffffffffffffffffff1614159050919050565b600033905090565b816004600083815260200190815260200160002060006101000a81548173ffffffffffffffffffffffffffffffffffffffff021916908373ffffffffffffffffffffffffffffffffffffffff160217905550808273ffffffffffffffffffffffffffffffffffffffff1661116c83610af1565b73ffffffffffffffffffffffffffffffffffffffff167f8c5be1e5ebec7d5bd14f71427d1e84f3dd0314c0f7b2291e5b200ac8c7c3b92560405160405180910390a45050565b60006111bd82611085565b6111fc576040517f08c379a00000000000000000000000000000000000000000000000000000000081526004016111f390613020565b60405180910390fd5b600061120783610af1565b90508073ffffffffffffffffffffffffffffffffffffffff168473ffffffffffffffffffffffffffffffffffffffff16148061127657508373ffffffffffffffffffffffffffffffffffffffff1661125e846106c3565b73ffffffffffffffffffffffffffffffffffffffff16145b8061128757506112868185610f77565b5b91505092915050565b8273ffffffffffffffffffffffffffffffffffffffff166112b082610af1565b73ffffffffffffffffffffffffffffffffffffffff1614611306576040517f08c379a00000000000000000000000000000000000000000000000000000000081526004016112fd906130b2565b60405180910390fd5b600073ffffffffffffffffffffffffffffffffffffffff168273ffffffffffffffffffffffffffffffffffffffff161415611376576040517f08c379a000000000000000000000000000000000000000000000000000000000815260040161136d90613144565b60405180910390fd5b611381838383611af4565b61138c6000826110f9565b6001600360008573ffffffffffffffffffffffffffffffffffffffff1673ffffffffffffffffffffffffffffffffffffffff16815260200190815260200160002060008282546113dc9190612f7a565b925050819055506001600360008473ffffffffffffffffffffffffffffffffffffffff1673ffffffffffffffffffffffffffffffffffffffff16815260200190815260200160002060008282546114339190613164565b92505081905550816002600083815260200190815260200160002060006101000a81548173ffffffffffffffffffffffffffffffffffffffff021916908373ffffffffffffffffffffffffffffffffffffffff160217905550808273ffffffffffffffffffffffffffffffffffffffff168473ffffffffffffffffffffffffffffffffffffffff167fddf252ad1be2c89b69c2b068fc378daa952ba7f163c4a11628f55a4df523b3ef60405160405180910390a46114f2838383611b04565b505050565b8173ffffffffffffffffffffffffffffffffffffffff168373ffffffffffffffffffffffffffffffffffffffff161415611566576040517f08c379a000000000000000000000000000000000000000000000000000000000815260040161155d90613206565b60405180910390fd5b80600560008573ffffffffffffffffffffffffffffffffffffffff1673ffffffffffffffffffffffffffffffffffffffff16815260200190815260200160002060008473ffffffffffffffffffffffffffffffffffffffff1673ffffffffffffffffffffffffffffffffffffffff16815260200190815260200160002060006101000a81548160ff0219169083151502179055508173ffffffffffffffffffffffffffffffffffffffff168373ffffffffffffffffffffffffffffffffffffffff167f17307eab39ab6107e8899845ad3d59bd9653f200f220920489ca2b5937696c318360405161165791906122f7565b60405180910390a3505050565b61166f848484611290565b61167b84848484611b09565b6116ba576040517f08c379a00000000000000000000000000000000000000000000000000000000081526004016116b190613298565b60405180910390fd5b50505050565b606060405180602001604052806000815250905090565b6060600082141561171f576040518060400160405280600181526020017f30000000000000000000000000000000000000000000000000000000000000008152509050611833565b600082905060005b6000821461175157808061173a90612908565b915050600a8261174a91906132e7565b9150611727565b60008167ffffffffffffffff81111561176d5761176c612601565b5b6040519080825280601f01601f19166020018201604052801561179f5781602001600182028036833780820191505090505b5090505b6000851461182c576001826117b89190612f7a565b9150600a856117c79190613318565b60306117d39190613164565b60f81b8183815181106117e9576117e8612951565b5b60200101907effffffffffffffffffffffffffffffffffffffffffffffffffffffffffffff1916908160001a905350600a8561182591906132e7565b94506117a3565b8093505050505b919050565b600073ffffffffffffffffffffffffffffffffffffffff168273ffffffffffffffffffffffffffffffffffffffff1614156118a8576040517f08c379a000000000000000000000000000000000000000000000000000000000815260040161189f90613395565b60405180910390fd5b6118b181611085565b156118f1576040517f08c379a00000000000000000000000000000000000000000000000000000000081526004016118e890613401565b60405180910390fd5b6118fd60008383611af4565b6001600360008473ffffffffffffffffffffffffffffffffffffffff1673ffffffffffffffffffffffffffffffffffffffff168152602001908152602001600020600082825461194d9190613164565b92505081905550816002600083815260200190815260200160002060006101000a81548173ffffffffffffffffffffffffffffffffffffffff021916908373ffffffffffffffffffffffffffffffffffffffff160217905550808273ffffffffffffffffffffffffffffffffffffffff16600073ffffffffffffffffffffffffffffffffffffffff167fddf252ad1be2c89b69c2b068fc378daa952ba7f163c4a11628f55a4df523b3ef60405160405180910390a4611a0e60008383611b04565b5050565b60007f80ac58cd000000000000000000000000000000000000000000000000000000007bffffffffffffffffffffffffffffffffffffffffffffffffffffffff1916827bffffffffffffffffffffffffffffffffffffffffffffffffffffffff19161480611add57507f5b5e139f000000000000000000000000000000000000000000000000000000007bffffffffffffffffffffffffffffffffffffffffffffffffffffffff1916827bffffffffffffffffffffffffffffffffffffffffffffffffffffffff1916145b80611aed5750611aec82611c91565b5b9050919050565b611aff838383611cfb565b505050565b505050565b6000611b2a8473ffffffffffffffffffffffffffffffffffffffff16611e0f565b15611c84578373ffffffffffffffffffffffffffffffffffffffff1663150b7a02611b536110f1565b8786866040518563ffffffff1660e01b8152600401611b759493929190613476565b6020604051808303816000875af1925050508015611bb157506040513d601f19601f82011682018060405250810190611bae91906134d7565b60015b611c34573d8060008114611be1576040519150601f19603f3d011682016040523d82523d6000602084013e611be6565b606091505b50600081511415611c2c576040517f08c379a0000000000000000000000000000000000000000000000000000000008152600401611c2390613298565b60405180910390fd5b805181602001fd5b63150b7a0260e01b7bffffffffffffffffffffffffffffffffffffffffffffffffffffffff1916817bffffffffffffffffffffffffffffffffffffffffffffffffffffffff191614915050611c89565b600190505b949350505050565b60007f01ffc9a7000000000000000000000000000000000000000000000000000000007bffffffffffffffffffffffffffffffffffffffffffffffffffffffff1916827bffffffffffffffffffffffffffffffffffffffffffffffffffffffff1916149050919050565b611d06838383611e32565b600073ffffffffffffffffffffffffffffffffffffffff168373ffffffffffffffffffffffffffffffffffffffff161415611d4957611d4481611e37565b611d88565b8173ffffffffffffffffffffffffffffffffffffffff168373ffffffffffffffffffffffffffffffffffffffff1614611d8757611d868382611e80565b5b5b600073ffffffffffffffffffffffffffffffffffffffff168273ffffffffffffffffffffffffffffffffffffffff161415611dcb57611dc681611fed565b611e0a565b8273ffffffffffffffffffffffffffffffffffffffff168273ffffffffffffffffffffffffffffffffffffffff1614611e0957611e0882826120be565b5b5b505050565b6000808273ffffffffffffffffffffffffffffffffffffffff163b119050919050565b505050565b6008805490506009600083815260200190815260200160002081905550600881908060018154018082558091505060019003906000526020600020016000909190919091505550565b60006001611e8d84610ba3565b611e979190612f7a565b9050600060076000848152602001908152602001600020549050818114611f7c576000600660008673ffffffffffffffffffffffffffffffffffffffff1673ffffffffffffffffffffffffffffffffffffffff168152602001908152602001600020600084815260200190815260200160002054905080600660008773ffffffffffffffffffffffffffffffffffffffff1673ffffffffffffffffffffffffffffffffffffffff168152602001908152602001600020600084815260200190815260200160002081905550816007600083815260200190815260200160002081905550505b6007600084815260200190815260200160002060009055600660008573ffffffffffffffffffffffffffffffffffffffff1673ffffffffffffffffffffffffffffffffffffffff16815260200190815260200160002060008381526020019081526020016000206000905550505050565b600060016008805490506120019190612f7a565b905060006009600084815260200190815260200160002054905060006008838154811061203157612030612951565b5b90600052602060002001549050806008838154811061205357612052612951565b5b9060005260206000200181905550816009600083815260200190815260200160002081905550600960008581526020019081526020016000206000905560088054806120a2576120a1613504565b5b6001900381819060005260206000200160009055905550505050565b60006120c983610ba3565b905081600660008573ffffffffffffffffffffffffffffffffffffffff1673ffffffffffffffffffffffffffffffffffffffff168152602001908152602001600020600083815260200190815260200160002081905550806007600084815260200190815260200160002081905550505050565b828054612149906129af565b90600052602060002090601f01602090048101928261216b57600085556121b2565b82601f1061218457805160ff19168380011785556121b2565b828001600101855582156121b2579182015b828111156121b1578251825591602001919060010190612196565b5b5090506121bf91906121c3565b5090565b5b808211156121dc5760008160009055506001016121c4565b5090565b6000604051905090565b600080fd5b600080fd5b6000819050919050565b612207816121f4565b811461221257600080fd5b50565b600081359050612224816121fe565b92915050565b6000602082840312156122405761223f6121ea565b5b600061224e84828501612215565b91505092915050565b60007fffffffff0000000000000000000000000000000000000000000000000000000082169050919050565b61228c81612257565b811461229757600080fd5b50565b6000813590506122a981612283565b92915050565b6000602082840312156122c5576122c46121ea565b5b60006122d38482850161229a565b91505092915050565b60008115159050919050565b6122f1816122dc565b82525050565b600060208201905061230c60008301846122e8565b92915050565b600081519050919050565b600082825260208201905092915050565b60005b8381101561234c578082015181840152602081019050612331565b8381111561235b576000848401525b50505050565b6000601f19601f8301169050919050565b600061237d82612312565b612387818561231d565b935061239781856020860161232e565b6123a081612361565b840191505092915050565b600060208201905081810360008301526123c58184612372565b905092915050565b600073ffffffffffffffffffffffffffffffffffffffff82169050919050565b60006123f8826123cd565b9050919050565b612408816123ed565b82525050565b600060208201905061242360008301846123ff565b92915050565b612432816123ed565b811461243d57600080fd5b50565b60008135905061244f81612429565b92915050565b6000806040838503121561246c5761246b6121ea565b5b600061247a85828601612440565b925050602061248b85828601612215565b9150509250929050565b61249e816121f4565b82525050565b60006020820190506124b96000830184612495565b92915050565b6000806000606084860312156124d8576124d76121ea565b5b60006124e686828701612440565b93505060206124f786828701612440565b925050604061250886828701612215565b9150509250925092565b60006080820190506125276000830187612495565b81810360208301526125398186612372565b90506125486040830185612495565b61255560608301846122e8565b95945050505050565b600060208284031215612574576125736121ea565b5b600061258284828501612440565b91505092915050565b612594816122dc565b811461259f57600080fd5b50565b6000813590506125b18161258b565b92915050565b600080604083850312156125ce576125cd6121ea565b5b60006125dc85828601612440565b92505060206125ed858286016125a2565b9150509250929050565b600080fd5b600080fd5b7f4e487b7100000000000000000000000000000000000000000000000000000000600052604160045260246000fd5b61263982612361565b810181811067ffffffffffffffff8211171561265857612657612601565b5b80604052505050565b600061266b6121e0565b90506126778282612630565b919050565b600067ffffffffffffffff82111561269757612696612601565b5b6126a082612361565b9050602081019050919050565b82818337600083830152505050565b60006126cf6126ca8461267c565b612661565b9050828152602081018484840111156126eb576126ea6125fc565b5b6126f68482856126ad565b509392505050565b600082601f830112612713576127126125f7565b5b81356127238482602086016126bc565b91505092915050565b60008060008060808587031215612746576127456121ea565b5b600061275487828801612440565b945050602061276587828801612440565b935050604061277687828801612215565b925050606085013567ffffffffffffffff811115612797576127966121ef565b5b6127a3878288016126fe565b91505092959194509250565b600067ffffffffffffffff8211156127ca576127c9612601565b5b6127d382612361565b9050602081019050919050565b60006127f36127ee846127af565b612661565b90508281526020810184848401111561280f5761280e6125fc565b5b61281a8482856126ad565b509392505050565b600082601f830112612837576128366125f7565b5b81356128478482602086016127e0565b91505092915050565b600060208284031215612866576128656121ea565b5b600082013567ffffffffffffffff811115612884576128836121ef565b5b61289084828501612822565b91505092915050565b600080604083850312156128b0576128af6121ea565b5b60006128be85828601612440565b92505060206128cf85828601612440565b9150509250929050565b7f4e487b7100000000000000000000000000000000000000000000000000000000600052601160045260246000fd5b6000612913826121f4565b91507fffffffffffffffffffffffffffffffffffffffffffffffffffffffffffffffff821415612946576129456128d9565b5b600182019050919050565b7f4e487b7100000000000000000000000000000000000000000000000000000000600052603260045260246000fd5b7f4e487b7100000000000000000000000000000000000000000000000000000000600052602260045260246000fd5b600060028204905060018216806129c757607f821691505b602082108114156129db576129da612980565b5b50919050565b7f4552433732313a20617070726f76656420717565727920666f72206e6f6e657860008201527f697374656e7420746f6b656e0000000000000000000000000000000000000000602082015250565b6000612a3d602c8361231d565b9150612a48826129e1565b604082019050919050565b60006020820190508181036000830152612a6c81612a30565b9050919050565b7f4552433732313a20617070726f76616c20746f2063757272656e74206f776e6560008201527f7200000000000000000000000000000000000000000000000000000000000000602082015250565b6000612acf60218361231d565b9150612ada82612a73565b604082019050919050565b60006020820190508181036000830152612afe81612ac2565b9050919050565b7f4552433732313a20617070726f76652063616c6c6572206973206e6f74206f7760008201527f6e6572206e6f7220617070726f76656420666f7220616c6c0000000000000000602082015250565b6000612b6160388361231d565b9150612b6c82612b05565b604082019050919050565b60006020820190508181036000830152612b9081612b54565b9050919050565b7f4552433732313a207472616e736665722063616c6c6572206973206e6f74206f60008201527f776e6572206e6f7220617070726f766564000000000000000000000000000000602082015250565b6000612bf360318361231d565b9150612bfe82612b97565b604082019050919050565b60006020820190508181036000830152612c2281612be6565b9050919050565b7f455243373231456e756d657261626c653a206f776e657220696e646578206f7560008201527f74206f6620626f756e6473000000000000000000000000000000000000000000602082015250565b6000612c85602b8361231d565b9150612c9082612c29565b604082019050919050565b60006020820190508181036000830152612cb481612c78565b9050919050565b7f455243373231456e756d657261626c653a20676c6f62616c20696e646578206f60008201527f7574206f6620626f756e64730000000000000000000000000000000000000000602082015250565b6000612d17602c8361231d565b9150612d2282612cbb565b604082019050919050565b60006020820190508181036000830152612d4681612d0a565b9050919050565b7f4552433732313a206f776e657220717565727920666f72206e6f6e657869737460008201527f656e7420746f6b656e0000000000000000000000000000000000000000000000602082015250565b6000612da960298361231d565b9150612db482612d4d565b604082019050919050565b60006020820190508181036000830152612dd881612d9c565b9050919050565b7f4552433732313a2062616c616e636520717565727920666f7220746865207a6560008201527f726f206164647265737300000000000000000000000000000000000000000000602082015250565b6000612e3b602a8361231d565b9150612e4682612ddf565b604082019050919050565b60006020820190508181036000830152612e6a81612e2e565b9050919050565b7f4552433732314d657461646174613a2055524920717565727920666f72206e6f60008201527f6e6578697374656e7420746f6b656e0000000000000000000000000000000000602082015250565b6000612ecd602f8361231d565b9150612ed882612e71565b604082019050919050565b60006020820190508181036000830152612efc81612ec0565b9050919050565b600081905092915050565b6000612f1982612312565b612f238185612f03565b9350612f3381856020860161232e565b80840191505092915050565b6000612f4b8285612f0e565b9150612f578284612f0e565b91508190509392505050565b6000612f6f8284612f0e565b915081905092915050565b6000612f85826121f4565b9150612f90836121f4565b925082821015612fa357612fa26128d9565b5b828203905092915050565b7f4552433732313a206f70657261746f7220717565727920666f72206e6f6e657860008201527f697374656e7420746f6b656e0000000000000000000000000000000000000000602082015250565b600061300a602c8361231d565b915061301582612fae565b604082019050919050565b6000602082019050818103600083015261303981612ffd565b9050919050565b7f4552433732313a207472616e736665722066726f6d20696e636f72726563742060008201527f6f776e6572000000000000000000000000000000000000000000000000000000602082015250565b600061309c60258361231d565b91506130a782613040565b604082019050919050565b600060208201905081810360008301526130cb8161308f565b9050919050565b7f4552433732313a207472616e7366657220746f20746865207a65726f2061646460008201527f7265737300000000000000000000000000000000000000000000000000000000602082015250565b600061312e60248361231d565b9150613139826130d2565b604082019050919050565b6000602082019050818103600083015261315d81613121565b9050919050565b600061316f826121f4565b915061317a836121f4565b9250827fffffffffffffffffffffffffffffffffffffffffffffffffffffffffffffffff038211156131af576131ae6128d9565b5b828201905092915050565b7f4552433732313a20617070726f766520746f2063616c6c657200000000000000600082015250565b60006131f060198361231d565b91506131fb826131ba565b602082019050919050565b6000602082019050818103600083015261321f816131e3565b9050919050565b7f4552433732313a207472616e7366657220746f206e6f6e20455243373231526560008201527f63656976657220696d706c656d656e7465720000000000000000000000000000602082015250565b600061328260328361231d565b915061328d82613226565b604082019050919050565b600060208201905081810360008301526132b181613275565b9050919050565b7f4e487b7100000000000000000000000000000000000000000000000000000000600052601260045260246000fd5b60006132f2826121f4565b91506132fd836121f4565b92508261330d5761330c6132b8565b5b828204905092915050565b6000613323826121f4565b915061332e836121f4565b92508261333e5761333d6132b8565b5b828206905092915050565b7f4552433732313a206d696e7420746f20746865207a65726f2061646472657373600082015250565b600061337f60208361231d565b915061338a82613349565b602082019050919050565b600060208201905081810360008301526133ae81613372565b9050919050565b7f4552433732313a20746f6b656e20616c7265616479206d696e74656400000000600082015250565b60006133eb601c8361231d565b91506133f6826133b5565b602082019050919050565b6000602082019050818103600083015261341a816133de565b9050919050565b600081519050919050565b600082825260208201905092915050565b600061344882613421565b613452818561342c565b935061346281856020860161232e565b61346b81612361565b840191505092915050565b600060808201905061348b60008301876123ff565b61349860208301866123ff565b6134a56040830185612495565b81810360608301526134b7818461343d565b905095945050505050565b6000815190506134d181612283565b92915050565b6000602082840312156134ed576134ec6121ea565b5b60006134fb848285016134c2565b91505092915050565b7f4e487b7100000000000000000000000000000000000000000000000000000000600052603160045260246000fdfea2646970667358221220894a0fff8f9637481e4a5e8325919d87705cb8eed2d2cbcc9c26d5ec7d88860a64736f6c634300080b0033",
  "immutableReferences": {},
  "source": "// SPDX-License-Identifier: MIT\r\npragma solidity ^0.8.0;\r\n\r\nimport \"@openzeppelin/contracts/token/ERC721/ERC721.sol\";\r\n\r\nimport \"@openzeppelin/contracts/token/ERC721/extensions/ERC721Enumerable.sol\";\r\n\r\ncontract Election is ERC721, ERC721Enumerable {\r\n\r\n    bool public ElectionResult = false;\r\nuint public VotingCount = 0;\r\n    //   \r\n    mapping(string => bool) _CandidateExists;\r\n\r\n    constructor() ERC721(\"Election\", \"CCS\"){\r\n        \r\n    }\r\n\r\n    struct Candidate {\r\n        uint id;\r\n        string name;\r\n        uint voteCount;\r\n        bool result;\r\n    }\r\n\r\n    Candidate[] public Candidates;\r\n\r\n        mapping(address => bool) public voters;\r\n\r\n    function mint(string memory name) public {\r\n        //   \r\n        require(!_CandidateExists[name]);\r\n        require(Candidates.length < 5);\r\n        // nft    \r\n        Candidates.push(Candidate(Candidates.length,name,0,false));\r\n        //    \r\n        uint _id = Candidates.length - 1;\r\n        _mint(msg.sender, _id);\r\n        _CandidateExists[name] = true;\r\n    }\r\n\r\n        function vote(uint _Candidateid) public {\r\n        // =>  ()  \r\n        require(!voters[msg.sender]);\r\n        require(_Candidateid >= 0);\r\n        //   \r\n        voters[msg.sender] = true;\r\n        VotingCount++;\r\n        //  \r\n  Candidates[_Candidateid].voteCount++;\r\n  if(Candidates[_Candidateid].voteCount == 3){\r\n        ElectionResult = true;\r\n        Candidates[_Candidateid].result = true;\r\n  }\r\n\r\n        // total  \r\n        // numVote++;\r\n        // emit sendMsg(\" complete\");\r\n   \r\n    }\r\n\r\n\r\n    function _beforeTokenTransfer(address from, address to, uint256 tokenId)\r\n        internal\r\n        override(ERC721, ERC721Enumerable)\r\n    {\r\n        super._beforeTokenTransfer(from, to, tokenId);\r\n    }\r\n\r\n    function supportsInterface(bytes4 interfaceId)\r\n        public\r\n        view\r\n        override(ERC721, ERC721Enumerable)\r\n        returns (bool)\r\n    {\r\n        return super.supportsInterface(interfaceId);\r\n    }\r\n}",
  "sourcePath": "C:\\Users\\HSBUBU\\Documents\\GitHub\\dicebearNFT\\contracts\\Election.sol",
  "compiler": {
    "name": "solc",
    "version": "0.8.11+commit.d7f03943.Emscripten.clang"
  },
  "schemaVersion": "3.4.5",
  "updatedAt": "2022-02-25T08:28:09.445Z",
  "networkType": "ethereum",
  "devdoc": {
    "kind": "dev",
    "methods": {
      "approve(address,uint256)": {
        "details": "See {IERC721-approve}."
      },
      "balanceOf(address)": {
        "details": "See {IERC721-balanceOf}."
      },
      "getApproved(uint256)": {
        "details": "See {IERC721-getApproved}."
      },
      "isApprovedForAll(address,address)": {
        "details": "See {IERC721-isApprovedForAll}."
      },
      "name()": {
        "details": "See {IERC721Metadata-name}."
      },
      "ownerOf(uint256)": {
        "details": "See {IERC721-ownerOf}."
      },
      "safeTransferFrom(address,address,uint256)": {
        "details": "See {IERC721-safeTransferFrom}."
      },
      "safeTransferFrom(address,address,uint256,bytes)": {
        "details": "See {IERC721-safeTransferFrom}."
      },
      "setApprovalForAll(address,bool)": {
        "details": "See {IERC721-setApprovalForAll}."
      },
      "symbol()": {
        "details": "See {IERC721Metadata-symbol}."
      },
      "tokenByIndex(uint256)": {
        "details": "See {IERC721Enumerable-tokenByIndex}."
      },
      "tokenOfOwnerByIndex(address,uint256)": {
        "details": "See {IERC721Enumerable-tokenOfOwnerByIndex}."
      },
      "tokenURI(uint256)": {
        "details": "See {IERC721Metadata-tokenURI}."
      },
      "totalSupply()": {
        "details": "See {IERC721Enumerable-totalSupply}."
      },
      "transferFrom(address,address,uint256)": {
        "details": "See {IERC721-transferFrom}."
      }
    },
    "version": 1
  },
  "userdoc": {
    "kind": "user",
    "methods": {},
    "version": 1
  }
}